:100000000C9434000C9446000C9446000C94AF0100
:100010000C9446000C94D0010C9446000C944600BD
:100020000C9446000C9446000C9446000C94460038
:100030000C9446000C9446000C9446000C94460028
:100040000C9446000C9446000C9446000C94460018
:100050000C9446000C9446000C9446000C94460008
:100060000C9446000C94460011241FBECFEFD8E03C
:10007000DEBFCDBF21E0A0E0B1E001C01D92A13103
:10008000B207E1F70E94FA000C9453060C940000AA
:10009000ECE7F0E080818064808380818F778083CB
:1000A00080818F7D8083EAE7F0E0808187608083B4
:1000B000808180688083EEE7F0E0808187608083C4
:1000C0000895ECE7F0E09081907F892B8083EAE748
:1000D000F0E080818064808380917A0086FDFCCF8F
:1000E00080917800909179000895823031F08330CA
:1000F00031F0813031F080E005C082E003C083E060
:1001000001C081E090E00E9461000895CF93DF93E9
:10011000C82F80E00E947500D0E0682FCE010E94B9
:10012000410681E00E947500682FCE0101960E9471
:10013000410682E00E947500682FCE0102960E945F
:10014000410683E00E947500682FCE0103960E944D
:100150004106DF91CF910895CF93DF93C82FD0E070
:10016000CE010E943906682F70E080E090E00E9486
:100170003E0560930D0170930E0180930F019093E3
:100180001001CE0101960E943906682F70E080E0D0
:1001900090E00E943E056093090170930A018093EC
:1001A0000B0190930C01CE0102960E943906682F34
:1001B00070E080E090E00E943E056093050170933E
:1001C00006018093070190930801CE0103960E94D7
:1001D0003906682F70E080E090E00E943E05609351
:1001E0000101709302018093030190930401DF9158
:1001F000CF910895F8940E9448000E949B0260E00D
:1002000074E080E00E94620260E074E080E00E949E
:100210007903E8E6F0E0808181608083ABE6B0E0BE
:100220008C9181608C93808184608083EDE6F0E026
:1002300080818C6980838AB183768AB98BB18C691D
:100240008BB984B18E7F84B985B1816085B984B161
:10025000806284B98AB180688AB978948BB38160EE
:100260008BBB8091000181116EC085B1806285B920
:100270008BB18F778BB980E00E947500682F70E09A
:1002800080E090E00E943E0560930D0170930E01A6
:1002900080930F01909310010E9415038FE39CE956
:1002A0000197F1F700C0000081E00E947500682FFF
:1002B00070E080E090E00E943E0560930901709339
:1002C0000A0180930B0190930C010E9447038FE376
:1002D0009CE90197F1F700C0000082E00E947500E0
:1002E000C82F682F70E080E090E00E943E05609388
:1002F00005017093060180930701909308018C2FEC
:100300000E94FA038FE39CE90197F1F700C0000017
:1003100083E00E947500C82F682F70E080E090E0B5
:100320000E943E05609301017093020180930301D6
:10033000909304018C2F0E947F028FE39CE9019728
:10034000F1F700C0000080910001813009F089CFF1
:1003500085B18F7D85B98BB180688BB982CF1F92B3
:100360000F920FB60F9211248F939F93189911C07B
:100370008FE19EE40197F1F700C00000189909C0D1
:10038000809100018F5F80930001823010F0109205
:1003900000019F918F910F900FBE0F901F901895A5
:1003A0001F920F920FB60F9211242F933F934F93EA
:1003B0005F936F937F938F939F93AF93BF93EF93CD
:1003C000FF9380910001811134C04A990BC08FE1E5
:1003D0009EE40197F1F700C000004A9903C080E055
:1003E0000E9486004B990BC08FE19EE40197F1F7C4
:1003F00000C000004B9903C084E00E9486004C9925
:100400000BC08FE19EE40197F1F700C000004C990A
:1004100003C088E00E9486004F990BC08FE19EE4E4
:100420000197F1F700C000004F9903C08CE00E94D3
:100430008600809100018130A1F54A990BC08FE1BF
:100440009EE40197F1F700C000004A9903C080E0E4
:100450000E94AC004B990BC08FE19EE40197F1F72D
:1004600000C000004B9903C084E00E94AC004C998E
:100470000BC08FE19EE40197F1F700C000004C999A
:1004800003C088E00E94AC004F990BC08FE19EE44E
:100490000197F1F700C000004F9903C08CE00E9463
:1004A000AC00FF91EF91BF91AF919F918F917F91A0
:1004B0006F915F914F913F912F910F900FBE0F90D1
:1004C0001F9018959AB190649AB994B5936094BDB1
:1004D00091E090936E00882321F084B5806C84BDF8
:1004E00003C084B5806884BD6115744021F485B56E
:1004F000856085BD089585B5816085BD0895682FA7
:1005000070E080E090E00E94400520E030E04FE79E
:1005100053E40E949D0420E030E040EF51E40E944B
:10052000CC0520E030E040EC50E40E9431040E9411
:100530000F0567BD089584B1826084B984B1846079
:1005400084B9E0E8F0E080EA808380818260808383
:10055000E1E8F0E088E180838081826080838FE33E
:100560009CE9909387008093860008954F925F9254
:100570006F927F92AF92BF92CF92DF92EF92FF92F3
:100580000F931F93CF93DF93CDB7DEB728970FB6A6
:10059000F894DEBF0FBECDBF29013A01ED82FE8285
:1005A0000F8318870E94300469837A838B839C832E
:1005B000A6019501698D7A8D8B8D9C8D0E943004EA
:1005C0009B01AC0169817A818B819C810E94CC0561
:1005D00069837A838B839C83A3019201C801B7014D
:1005E0000E9430049B01AC0169817A818B819C81DE
:1005F0000E949D049B01AC01C601B5010E9431041B
:1006000028960FB6F894DEBF0FBECDBFDF91CF9115
:100610001F910F91FF90EF90DF90CF90BF90AF9020
:100620007F906F905F904F900895AF92BF92CF925E
:10063000DF92EF92FF920F931F9325E42F9326E909
:100640002F931F921F920F2EA12CB12CFAE7CF2EC1
:10065000F4E4DF2EF02DE12CF12C00E814E420E08E
:1006600030E0A9010E94B6020F900F900F900F90FA
:100670000E940F0570938900609388001F910F916D
:10068000FF90EF90DF90CF90BF90AF900895AF9222
:10069000BF92CF92DF92EF92FF920F931F9325E4C8
:1006A0002F9326E92F931F921F920F2EA12CB12C6E
:1006B000FAE7CF2EF4E4DF2EF02DE12CF12C00E848
:1006C00014E420E030E0A9010E94B6020F900F90E0
:1006D0000F900F900E940F0570938B0060938A001B
:1006E0001F910F91FF90EF90DF90CF90BF90AF9050
:1006F000089594B1986094B9E0EBF0E09081936034
:100700009083882321F08081806C808305C0E0EB9A
:10071000F0E08081806880836115744031F4E1EB02
:10072000F0E08081876080830895E1EBF0E08081D4
:100730008160808308954F925F926F927F92AF9213
:10074000BF92CF92DF92EF92FF920F931F93CF93BE
:10075000DF93CDB7DEB728970FB6F894DEBF0FBE94
:10076000CDBF29013A01ED82FE820F8318870E94D6
:10077000300469837A838B839C83A6019501698DFC
:100780007A8D8B8D9C8D0E9430049B01AC01698118
:100790007A818B819C810E94CC0569837A838B83CB
:1007A0009C83A3019201C801B7010E9430049B0100
:1007B000AC0169817A818B819C810E949D049B019F
:1007C000AC01C601B5010E94310428960FB6F89419
:1007D000DEBF0FBECDBFDF91CF911F910F91FF9074
:1007E000EF90DF90CF90BF90AF907F906F905F9031
:1007F0004F900895AF92BF92CF92DF92EF92FF9207
:100800000F931F93682F70E080E090E00E943E05F8
:1008100022E42F9320E12F931F921F920F2EA12CE1
:10082000B12CF0ECCF2EF0E4DF2EF02DE12CF12CEA
:100830000FE713E420E030E0A9010E949B030F9032
:100840000F900F900F900E940F056093B3001F91BF
:100850000F91FF90EF90DF90CF90BF90AF900895F1
:100860005058BB27AA270E9448040C9492050E9466
:10087000840538F00E948B0520F039F49F3F19F46D
:1008800026F40C9481050EF4E095E7FB0C947B05AF
:10089000E92F0E94A30558F3BA176207730784076C
:1008A000950720F079F4A6F50C94C5050EF4E095B3
:1008B0000B2EBA2FA02D0B01B90190010C01CA011A
:1008C000A0011124FF27591B99F0593F50F4503EC5
:1008D00068F11A16F040A22F232F342F4427585FB7
:1008E000F3CF469537952795A795F0405395C9F7CF
:1008F0007EF41F16BA0B620B730B840BBAF0915087
:10090000A1F0FF0FBB1F661F771F881FC2F70EC025
:10091000BA0F621F731F841F48F4879577956795F8
:10092000B795F7959E3F08F0B0CF9395880F08F0E4
:100930009927EE0F9795879508950E94B1040C941E
:1009400092050E948B0558F00E94840540F029F41E
:100950005F3F29F00C947B0551110C94C6050C9453
:1009600081050E94A30568F39923B1F3552391F300
:10097000951B550BBB27AA2762177307840738F00E
:100980009F5F5F4F220F331F441FAA1FA9F335D06B
:100990000E2E3AF0E0E832D091505040E695001C1F
:1009A000CAF72BD0FE2F29D0660F771F881FBB1FD9
:1009B000261737074807AB07B0E809F0BB0B802DB7
:1009C000BF01FF2793585F4F3AF09E3F510578F0E3
:1009D0000C947B050C94C6055F3FE4F3983ED4F37A
:1009E000869577956795B795F7959F5FC9F7880FB7
:1009F000911D9695879597F90895E1E0660F771F09
:100A0000881FBB1F621773078407BA0720F0621B99
:100A1000730B840BBA0BEE1F88F7E09508950E94C4
:100A2000AB0588F09F5798F0B92F9927B751B0F0D0
:100A3000E1F0660F771F881F991F1AF0BA95C9F762
:100A400014C0B13091F00E94C505B1E008950C9436
:100A5000C505672F782F8827B85F39F0B93FCCF3E9
:100A6000869577956795B395D9F73EF490958095DF
:100A7000709561957F4F8F4F9F4F0895E89409C0FF
:100A800097FB3EF490958095709561957F4F8F4FC1
:100A90009F4F9923A9F0F92F96E9BB279395F695D7
:100AA000879577956795B795F111F8CFFAF4BB0F55
:100AB00011F460FF1BC06F5F7F4F8F4F9F4F16C0B9
:100AC000882311F096E911C0772321F09EE8872F43
:100AD000762F05C0662371F096E8862F70E060E0FF
:100AE0002AF09A95660F771F881FDAF7880F969578
:100AF000879597F9089597F99F6780E870E060E01F
:100B000008959FEF80EC089500240A9416161706A6
:100B100018060906089500240A94121613061406EE
:100B200005060895092E0394000C11F4882352F051
:100B3000BB0F40F4BF2B11F460FF04C06F5F7F4F09
:100B40008F4F9F4F089557FD9058440F551F59F0F0
:100B50005F3F71F04795880F97FB991F61F09F3FAA
:100B600079F087950895121613061406551FF2CFD3
:100B70004695F1DF08C0161617061806991FF1CF23
:100B800086957105610508940895E894BB2766274A
:100B90007727CB0197F908950E94DF050C94920501
:100BA0000E94840538F00E948B0520F0952311F0F7
:100BB0000C947B050C94810511240C94C6050E94AD
:100BC000A30570F3959FC1F3950F50E0551F629FE9
:100BD000F001729FBB27F00DB11D639FAA27F00D96
:100BE000B11DAA1F649F6627B00DA11D661F829FBD
:100BF0002227B00DA11D621F739FB00DA11D621FA2
:100C0000839FA00D611D221F749F3327A00D611DBE
:100C1000231F849F600D211D822F762F6A2F1124A0
:100C20009F5750409AF0F1F088234AF0EE0FFF1FD3
:100C3000BB1F661F771F881F91505040A9F79E3F2A
:100C4000510580F00C947B050C94C6055F3FE4F3DE
:100C5000983ED4F3869577956795B795F795E79580
:100C60009F5FC1F7FE2B880F911D9695879597F989
:100C70000895F999FECF92BD81BDF89A992780B564
:100C80000895262FF999FECF92BD81BDF89A01975C
:100C900000B4021639F01FBA20BD0FB6F894FA9AC4
:0A0CA000F99A0FBE0895F894FFCFF3
:00000001FF
